:040000000DEF00F010
:040008003CEF90F049
:06001800FF003DEF9EF029
:10FB14000041542B54434F4E463D39303637303034
:10FB24003A32323A3132353A31323A342F383A3184
:10FB34003A310D0041542B54434F4E463D39303633
:10FB44003330303A32323A3132353A31323A342F74
:10FB5400383A313A310D0041542B54584C52413DFE
:10FB64003930363730303A303A45410041542B521F
:10FB7400584C52413D3930363730303A310D00411E
:10FB8400542B54584C52413D3930363730303A308A
:10FB94003A0041542B52584C52413D39303633309F
:10FBA400303A300D0041542B54584C52413D3930B9
:10FBB400363330303A303A0041542B544F46460DD8
:10FBC4000041545A0D0041540D0047573A2020205B
:10FBD4002020202020202020202020203120200030
:10FBE4002020202020202020202020202020202011
:10FBF400202020200047573A2020202020202020A9
:10FC040020202020202020202000416C6976653AA5
:10FC140020504E452020202020202020202000415C
:10FC24006C6976653A20474C502020202020202003
:10FC3400202020004556454E544F3A20504E452032
:10FC44002020202020202020004556454E544F3AA5
:10FC540020474C5020202020202020202000416CD0
:10FC64006976653A204A6F6B657920202020202030
:10FC74002020002020202020204552524F2E2E2EBE
:10FC840020202020202020004556454E544F3A2065
:10FC94004A6F6B6579202020202020200063656E48
:10FCA4007472616C2E20456E76696F2020202020AE
:10FCB4002000416C6976653A2048696472616E740B
:10FCC40065202020202000416C6976653A20446537
:10FCD400746563746F7220202020200055706C6955
:10FCE4006E6B3A205F5F5F2020207C202020202044
:10FCF40000202020497272616469612041434B2EC7
:10FD04002E20202020004556454E544F3A20486965
:10FD14006472616E7465202020200020202020441D
:10FD24006573636F6E68656369646F2020202000CB
:10FD3400416C6976653A20537072696E6B6C6572BA
:10FD44002020202000416C6976653A204163696F68
:10FD54006E61646F7220202020004556454E544F3A
:10FD64003A204465746563746F722020202000205B
:10FD740044656661756C74203D202731303030272E
:10FD8400202020002044656661756C74203D202786
:10FD94003131303027202020002044656661756CA5
:10FDA40074203D202731303031272020200020448A
:10FDB400656661756C74203D202731303032272010
:10FDC4002020002044656661756C74203D20273135
:10FDD40030303327202020002044656661756C7420
:10FDE400203D20273130303427202020004556453F
:10FDF4004E544F3A20537072696E6B6C65722020BA
:10FE040020004556454E544F3A204163696F6E6158
:10FE1400646F722020200020457363726576656EDE
:10FE2400646F2076616C6F72202020002043656E21
:10FE34007472616C2072656365626575202120208F
:10FE44000047573A205F5F5F5F202020202020205A
:10FE540020203120200047573A2020202020202035
:10FE640020202020202020322020002020526164E5
:10FE7400696F202D3E2043656E7472616C202000F2
:10FE8400202043656E7472616C202D3E20526164A3
:10FE9400696F202000416C6976653A204368617679
:10FEA4006520666C75786F202000204552524F20E3
:10FEB400646520656E64657265636F20212000456A
:10FEC4006E7669616E646F206461646F7320706123
:10FED40072612000416C6976653A20436F6E7461EB
:10FEE400746F205365636F20004556454E544F3A56
:10FEF40020436861766520666C75786F2000202049
:10FF04002049443A205F5F5F5F2020202D2D2D2D56
:10FF14002D2D00526164696F206E616F20726573CC
:10FF2400706F6E6465752E004C4F472D5265696E77
:10FF34006963696120526164696F2031004C4F47E5
:10FF44002D5265696E6963696120526164696F202D
:10FF54003200464F4E54453A205F2E5F20562020F3
:10FF64007C525353493A0020204241543A205F2E98
:10FF74005F205620207C525353493A00456E7669DF
:10FF8400612041434B20616F206465766963653A63
:10FF9400005061636F7465205472616E7370617296
:10FFA400656E74653A007632327232352F353A20F6
:10FFB400202020526164696F733A00416C69766550
:10FFC4003A2050726573737572697A6163616F0068
:10FFD4004556454E544F2050726573737572697A55
:10FFE4006163616F004556454E544F3A20436F6E2E
:0BFFF4007461746F205365636F0000A0
:020000040001F9
:1000000037EC8CF00000030E466EF20E456E2DECC0
:1000100095F0000020ECA0F0000039EC9FF000000B
:1000200006018F6B000E8E6F0501DC6BDB6BDA6BEC
:10003000FA6B216AAD6B000EAC6FE36BBC6BAF6B00
:10004000000EAE6FB16B000EB06FCA92C282290E65
:100050005B6E960E5A6E7F0EE82EFED75A2EFCD798
:100060005B2EFAD70000CA82C29214EC9AF0226A80
:1000700013C548F514C549F589EC9FF015ECA6F0B9
:10008000126A000E116E95EC9EF02C0E0501B05D0B
:10009000010EB159D8A04FEF80F051EF80F057EF2B
:1000A00080F038ECA6F00501B16B000EB06FAF51D7
:1000B00009E15B0EAE5DD8A060EF80F062EF80F0EA
:1000C0007DEF80F0AF6B000EAE6FC4ECA3F0140EAA
:1000D00076EC97F0140EE9EC96F01B50D8B473EF61
:1000E00080F075EF80F07DEF80F05FECA3F0160EEE
:1000F0005AEC96F0160ECBEC95F0CEB482EF80F071
:1001000084EF80F088EF80F0030E89EC89F0000026
:10011000680E0501AC1906E1AD05D8A492EF80F098
:1001200094EF80F099EF80F0AD6B000EAC6F2BEC8C
:10013000A5F0CEA69EEF80F0A0EF80F0ADEF80F0AE
:100140000000D1A6A6EF80F0A8EF80F0C1EF80F00C
:10015000EFEC9BF00000C1EF80F00000D1B6B3EFF0
:1001600080F0B5EF80F0C1EF80F0D69E83EC9DF07B
:100170002A0E5A6E8E0EE82EFED75A2EFCD7AAEF04
:1001800080F00501FA51D8B4C8EF80F0CAEF80F0D2
:10019000E3EF80F0620E386E53EC8FF00000940EA7
:1001A000416E060E426E2C0E436EFF0E446E5CECEA
:1001B000A7F053ECA8F00501B16B000EB06FA0ECF6
:1001C00092F039EC9FF01B04D8A4E9EF80F0EBEF3C
:1001D00080F00DEF81F00501EE51D8B4F2EF80F020
:1001E000F4EF80F00DEF81F0630E386E53EC8FF07A
:1001F0000000940E416E060E426E410E436EFF0EDD
:10020000446E5CECA7F053ECA8F00501B16B000E56
:10021000B06F0AEC9BF0BFECA1F03B50D8B413EFE9
:1002200081F015EF81F03DEF81F0C08E050E5B6E21
:100230000F0E5A6EF10EE82EFED75A2EFCD75B2E0B
:10024000FAD70000C09E150E5B6E4B0E5A6EBE0EA6
:10025000E82EFED75A2EFCD75B2EFAD700D079ECC9
:1002600083F00000C4ECA3F00000140E76EC97F0CD
:100270000000140EE9EC96F000000501D451D8B44A
:1002800044EF81F046EF81F05AEF81F0E2EC9DF00F
:1002900053EC8FF00501D46B290E5B6E960E5A6EEF
:1002A0007F0EE82EFED75A2EFCD75B2EFAD7000021
:1002B00014EC9AF00501E551D8B461EF81F063EFD9
:1002C00081F0A7EF82F0E56BE06BE16BDF6B000084
:1002D0000A0E11181210D8A470EF81F072EF81F09D
:1002E000BDEF81F05B0E06010019D8A47AEF81F012
:1002F0007CEF81F0BDEF81F0410E0219D8A483EFAD
:1003000081F085EF81F0A0EF81F0470E0319D8A4AA
:100310008CEF81F08EEF81F0A0EF81F0C188540E58
:100320000119D8A496EF81F098EF81F09DEF81F04C
:10033000010E93EC9AF0A0EF81F0000E93EC9AF08E
:10034000090E5B6E1E0E5A6EE40EE82EFED75A2E74
:10035000FCD75B2EFAD700D0C198210E5B6E780EC9
:100360005A6E980EE82EFED75A2EFCD75B2EFAD77F
:1003700000D014EC9AF0A6EF82F0050E11181210BE
:10038000D8A4C5EF81F0C7EF81F018EF82F0DE0E40
:1003900006010019D8A4CFEF81F0D1EF81F018EF5A
:1003A00082F0010E0501DF6FC1884C0E135C040E54
:1003B0001458D8A0DEEF81F0E0EF81F006EF82F074
:1003C000010E7DEC9BF001C60DF50E6A0D500E6E10
:1003D0000D6A060102510D26000E0E220DC548F5CC
:1003E0000EC549F589EC9FF02050300F0501896F4B
:1003F0001F50300F8A6F1E50300F8B6F1D50300F03
:100400008C6F010E49EC93F009EF82F0000E7DEC49
:100410009BF0090E5B6E1E0E5A6EE40EE82EFED7A0
:100420005A2EFCD75B2EFAD700D0C198ADEF81F0E1
:10043000050E11181210D8A420EF82F022EF82F0DE
:1004400078EF82F0AA0E06010019D8A42AEF82F0F4
:100450002CEF82F078EF82F0C188030E176EF20E57
:100460000501B86F17C513F5146A1350146E136A9B
:10047000B8511324136E000E1420146E090E5B6E17
:100480001E0E5A6EE40EE82EFED75A2EFCD75B2EB7
:10049000FAD700D0C198E80E135C030E1458D8A008
:1004A00054EF82F056EF82F066EF82F0426A000E5F
:1004B000416E030E436E7BECA5F0426A010E416E65
:1004C000F20E436E7BECA5F074EF82F050EC8DF0F1
:1004D000520E5B6E2B0E5A6E000EE82EFED75A2E71
:1004E000FCD75B2EFAD700D014EC9AF0A6EF82F07E
:1004F000050E11181210D8A480EF82F082EF82F05E
:1005000091EF82F0DA0E06010019D8A48AEF82F08A
:100510008CEF82F091EF82F0010E0501E06FA6EF03
:1005200082F0DF0E06010019D8A499EF82F09BEF4C
:1005300082F0A6EF82F0520E0119D8A4A2EF82F049
:10054000A4EF82F0A6EF82F0006BFF00000005012F
:10055000DF51D8B4AEEF82F0B0EF82F0B2EF82F0AC
:10056000DF6BDE6BE051D8B4B8EF82F0BAEF82F007
:100570004CEF83F0C188C09CC08A000E0601786FE2
:10058000000E796F000E7A6F000E7B6F090E5B6EA6
:100590001E0E5A6EE40EE82EFED75A2EFCD75B2EA6
:1005A000FAD700D0C198150E5B6E4B0E5A6EBE0E78
:1005B000E82EFED75A2EFCD75B2EFAD700D0E80ED5
:1005C000135C030E1458D8A0E8EF82F0EAEF82F033
:1005D00047EF83F000000501C351D8A4F2EF82F089
:1005E000F4EF82F0FCEF82F01C50D8B4FAEF82F006
:1005F000FCEF82F042EF83F000000501C351D8B454
:1006000004EF83F006EF83F007EF83F0C36B1C5019
:10061000D8B40DEF83F00FEF83F010EF83F01C6A76
:10062000020E5B6EA00E5A6E920EE82EFED75A2E68
:10063000FCD75B2EFAD700D0010E0501DE6F2150EA
:10064000D8A425EF83F027EF83F029EF83F0010E84
:10065000216EA76B000EA66FE7EC91F0110E5B6E9A
:100660003C0E5A6ECB0EE82EFED75A2EFCD75B2ED0
:10067000FAD7000053EC8FF014EC9AF00501E06B10
:100680004AEF83F0000080ECA4F03EEF83F000001E
:100690000501E06BE06BC198E151D8B452EF83F0F3
:1006A00054EF83F043EF80F0C188E16B0000D50E7A
:1006B00006010019D8A45FEF83F061EF83F064EFC7
:1006C00083F0BDECA6F00000D70E06010019D8A4F7
:1006D0006CEF83F06EEF83F072EF83F0C9ECA5F05E
:1006E00042ECA9F00501BC6BC19843EF80F00DEF1F
:1006F00000F03B6A3804D8A480EF83F082EF83F0E7
:1007000076EF85F0CA92C282110E506E3C0E4F6E8B
:10071000CB0EE82EFED74F2EFCD7502EFAD7000076
:10072000CA82C292A8EC87F00501D66B02C788F591
:1007300003C789F504C78AF505C78BF506C78CF58D
:1007400007C78DF508C78EF509C78FF50AC790F55D
:100750000BC791F50CC792F50000D10E0501606F33
:1007600060EF84F0CC0E616FAA0E626F010ED66F3F
:10077000B7EF84F0CC0E616FCC0E626F010ED66FB6
:10078000B7EF84F0CB0E616FAA0E626F010ED66FC9
:10079000B7EF84F0CB0E616FCB0E626F010ED66F98
:1007A000B7EF84F0CB0E616FFE0E626F010ED66F55
:1007B000B7EF84F0E50E616FAA0E626F010ED66F7F
:1007C000B7EF84F0E50E616FE50E626F010ED66F34
:1007D000B7EF84F0E70E616FAA0E626F010ED66F5D
:1007E000B7EF84F0E70E616FE70E626F010ED66F10
:1007F000B7EF84F0E90E616FAA0E626F010ED66F3B
:10080000B7EF84F0E90E616FE90E626F010ED66FEB
:10081000B7EF84F0ED0E616FAA0E626F010ED66F16
:10082000B7EF84F0ED0E616FED0E626F010ED66FC3
:10083000B7EF84F0E40E616FAA0E626F010ED66FFF
:10084000B7EF84F0E40E616FE40E626F010ED66FB5
:10085000B7EF84F0DF0E616FAA0E626F010ED66FE4
:10086000B7EF84F0DF0E616FDF0E626F010ED66F9F
:10087000B7EF84F0E20E616FAA0E626F010ED66FC1
:10088000B7EF84F0E20E616FE20E626F010ED66F79
:10089000B7EF84F0E30E616FAA0E626F010ED66FA0
:1008A000B7EF84F0E30E616FE30E626F010ED66F57
:1008B000B7EF84F0CB0E616FAA0E626FB7EF84F0D2
:1008C0008851410AD8B4B2EF83F0030AD8B4BAEF22
:1008D00083F0070AD8B4C2EF83F0030AD8B4CAEF92
:1008E00083F0010AD8B4DAEF83F00F0AD8B4EAEF44
:1008F00083F0010AD8B4FAEF83F0030AD8B40AEF00
:1009000084F0010AD8B41AEF84F0070AD8B42AEFA9
:1009100084F0010AD8B43AEF84F0030AD8B44AEF5D
:1009200084F0160AD8B4D2EF83F03F0AD8B4E2EFCD
:1009300083F00F0AD8B4F2EF83F0010AD8B402EFC3
:1009400084F0030AD8B412EF84F0010AD8B422EF7D
:1009500084F0070AD8B432EF84F0010AD8B442EF29
:1009600084F0030AD8B452EF84F05AEF84F089C5BA
:1009700063F58AC564F58BC565F58CC566F58DC5CF
:1009800067F58EC568F58FC569F590C56AF591C59F
:100990006BF592C56CF599C56DF59AC56EF59BC55D
:1009A0006FF59CC570F5110E516E600E5124D96E15
:1009B000DA6A050EDA22300EDF6E512A240E5164F7
:1009C000E4EF84F0E6EF84F0D5EF84F0DF0E05016C
:1009D000856F0D0E866F0A0E876F0000520E506EE7
:1009E0002B0E4F6E000EE82EFED74F2EFCD7502E4A
:1009F000FAD700D00501D651D8B401EF85F003EF46
:100A000085F04CEF85F000004C0E135C040E14587A
:100A1000D8A00DEF85F00FEF85F045EF85F0290E9A
:100A2000506E960E4F6E7F0EE82EFED74F2EFCD7DF
:100A3000502EFAD70000C08E050E506E0F0E4F6E6E
:100A4000F10EE82EFED74F2EFCD7502EFAD700001D
:100A5000C09E050E506E0F0E4F6EF10EE82EFED7A3
:100A60004F2EFCD7502EFAD70000C08E050E506EC8
:100A70000F0E4F6EF10EE82EFED74F2EFCD7502EE4
:100A8000FAD70000C09E4CEF85F00501DD5112EC55
:100A900099F0385049EC93F0290E506E960E4F6E37
:100AA0007F0EE82EFED74F2EFCD7502EFAD700002F
:100AB000010E1C6E010E0501E06F00003F0E246464
:100AC00064EF85F066EF85F0C5EF85F0090E506E96
:100AD0001E0E4F6EE40EE82EFED74F2EFCD7502E82
:100AE000FAD700D014EC9AF0C5EF85F0030E381851
:100AF000D8A47DEF85F07FEF85F082EF85F00000D0
:100B0000C5EF85F0050E3818D8A489EF85F08BEF76
:100B100085F08DEF85F07FEF85F0020E3818D8A4B0
:100B200094EF85F096EF85F098EF85F07FEF85F0F4
:100B3000040E3818D8A49FEF85F0A1EF85F0C5EF1B
:100B400085F0BB0E0701646F010E526E010E522438
:100B5000D96EDA6A070EDA22640E5224E16EE26A76
:100B6000070EE222DFC4E7F4522A250E5264BBEFDF
:100B700085F0BDEF85F0A6EF85F00D0E07018A6FB9
:100B80000A0E8B6F010E0501D46F12000501B44BE4
:100B9000B52BA1C239F53E0E3918D8A4D2EF85F095
:100BA000D4EF85F0D8EF85F03C6AB56B000EB46FDA
:100BB00008C507F509C508F50AC509F50BC50AF505
:100BC0000CC50BF539C50CF5640E3C60EAEF85F0F9
:100BD000ECEF85F0F5EF85F0000E3C24D96EDA6A73
:100BE000070EDA2239C5DFF43C2A740E0818D8A49F
:100BF000FCEF85F0FEEF85F01DEF86F0780E09180A
:100C0000D8A405EF86F007EF86F01DEF86F06F0E93
:100C10000B18D8A40EEF86F010EF86F01DEF86F0CB
:100C20006B0E0C18D8A417EF86F019EF86F01DEFA5
:100C300086F0010EF56F43EF86F00D0E0918D8A46B
:100C400024EF86F026EF86F043EF86F00A0E0A18AE
:100C5000D8A42DEF86F02FEF86F043EF86F04F0EED
:100C60000B18D8A436EF86F038EF86F043EF86F005
:100C70004B0E0C18D8A43FEF86F041EF86F043EFFF
:100C800086F0010EF66F4F0E0918D8A44AEF86F0D1
:100C90004CEF86F06BEF86F0540E0A18D8A453EF91
:100CA00086F055EF86F06BEF86F0410E0B18D8A456
:100CB0005CEF86F05EEF86F06BEF86F0410E0C186D
:100CC000D8A465EF86F067EF86F06BEF86F0010E33
:100CD0003A6E9AEF86F0450E0818D8A472EF86F0A7
:100CE00074EF86F09AEF86F0520E0918D8A47BEFC5
:100CF00086F07DEF86F09AEF86F0520E0A18D8A49F
:100D000084EF86F086EF86F09AEF86F04F0E0B1890
:100D1000D8A48DEF86F08FEF86F09AEF86F0520E12
:100D20000C18D8A496EF86F098EF86F09AEF86F02C
:100D3000010EFA6F6C0E0818D8A4A1EF86F0A3EF8D
:100D400086F0C2EF86F0640E0918D8A4AAEF86F0E8
:100D5000ACEF86F0C2EF86F0330E0B18D8A4B3EFD9
:100D600086F0B5EF86F0C2EF86F0360E0C18D8A4E8
:100D7000BCEF86F0BEEF86F0C2EF86F0010EF46F96
:100D8000C4EF86F0020EF46F490E0718D8A4CBEF1B
:100D900086F0CDEF86F0DEEF86F03D0E0818D8A481
:100DA000D4EF86F0D6EF86F0DEEF86F009C599F530
:100DB0000AC59AF50BC59BF50CC59CF53E0E0701BF
:100DC0000019D8A4E6EF86F0E8EF86F0F5EF86F09C
:100DD0000D0E2819D8A4EFEF86F0F1EF86F0F5EFAD
:100DE00086F0040E386E010E3B6EEC0E131807E110
:100DF000030E1418D8A4FFEF86F001EF87F055EF2B
:100E000087F0020E0501F319D8A409EF87F00BEF64
:100E100087F055EF87F03E0E07010019D8A413EFB5
:100E200087F015EF87F055EF87F0060E3C641BEF57
:100E300087F01DEF87F055EF87F04B0E0219D8A40D
:100E400024EF87F026EF87F055EF87F005018951F1
:100E500007010319D8A42FEF87F031EF87F055EF82
:100E600087F005018A5107010419D8A43AEF87F0E9
:100E70003CEF87F055EF87F005018A51070105190E
:100E8000D8A445EF87F047EF87F055EF87F00501CD
:100E90008B5107010619D8A450EF87F052EF87F065
:100EA00055EF87F0010E0501F36F3E0E07010019A3
:100EB000D8A45DEF87F05FEF87F093EF87F00D0E1A
:100EC0000E19D8A466EF87F068EF87F093EF87F0EC
:100ED000400E02656EEF87F070EF87F081EF87F0CC
:100EE0004F0E026176EF87F078EF87F081EF87F0A1
:100EF000010E0501F26F010E3B6E010E386E93EF8D
:100F000087F0660E026587EF87F089EF87F093EF31
:100F100087F06F0E02618FEF87F091EF87F093EF0C
:100F200087F078EF87F0C00E3424D96EDA6A090EA4
:100F3000DA2239C5DFF4342A3F0E3464A2EF87F099
:100F4000A4EF87F0A5EF87F0346A0501F12B1200BA
:100F50003F0E2464AEEF87F0B0EF87F088EF89F0A2
:100F600083ECA8F0C00E416E060E426EE40E436E96
:100F7000FB0E446E5CECA7F0D2EF88F0C00E416E21
:100F8000060E426E490E436EFD0E446E5CECA7F0F9
:100F90002EEF89F0C00E416E060E426E060E436EB5
:100FA000FE0E446E5CECA7F02EEF89F0C00E416E91
:100FB000060E426E1F0E436EFD0E446E5CECA7F0F3
:100FC0002EEF89F0C00E416E060E426E1F0E436E6C
:100FD000FD0E446E5CECA7F02EEF89F0C00E416E62
:100FE000060E426ECB0E436EFC0E446E5CECA7F018
:100FF0002EEF89F0C00E416E060E426E5E0E436EFD
:10100000FD0E446E5CECA7F02EEF89F0C00E416E31
:10101000060E426E990E436EFE0E446E5CECA7F017
:101020002EEF89F0C00E416E060E426E230E436E07
:10103000FC0E446E5CECA7F02EEF89F0C00E416E02
:10104000060E426E0E0E436EFC0E446E5CECA7F074
:101050002EEF89F0C00E416E060E426E620E436E98
:10106000FC0E446E5CECA7F02EEF89F0C00E416ED2
:10107000060E426EB60E436EFC0E446E5CECA7F09C
:101080002EEF89F0C00E416E060E426E340E436E96
:10109000FD0E446E5CECA7F02EEF89F0C00E416EA1
:1010A000060E426EBF0E436EFF0E446E5CECA7F060
:1010B0002EEF89F0C00E416E060E426ED80E436EC2
:1010C000FE0E446E5CECA7F02EEF89F0C00E416E70
:1010D000060E426EED0E436EFE0E446E5CECA7F003
:1010E0002EEF89F0C00E416E060E426E4D0E436E1D
:1010F000FC0E446E5CECA7F02EEF89F0C00E416E42
:10110000060E426E380E436EFC0E446E5CECA7F089
:101110002EEF89F0C00E416E060E426E8C0E436EAD
:10112000FC0E446E5CECA7F02EEF89F0C00E416E11
:10113000060E426E0A0E436EFD0E446E5CECA7F086
:101140002EEF89F0C00E416E060E426EF10E436E18
:10115000FD0E446E5CECA7F02EEF89F0C00E416EE0
:10116000060E426ED40E436EFF0E446E5CECA7F08A
:101170002EEF89F0C00E416E060E426EE90E436EF0
:10118000FF0E446E5CECA7F02EEF89F0C00E416EAE
:10119000060E426E1F0E436EFD0E446E5CECA7F011
:1011A0002EEF89F007010251410AD8B4BEEF87F053
:1011B000030AD8B4CAEF87F0010AD8B4D6EF87F093
:1011C000070AD8B4E2EF87F0010AD8B4EEEF87F04F
:1011D000030AD8B4FAEF87F0010AD8B406EF88F012
:1011E0000F0AD8B412EF88F0010AD8B41EEF88F0C5
:1011F000030AD8B42AEF88F0010AD8B436EF88F091
:10120000070AD8B442EF88F0010AD8B44EEF88F04C
:10121000030AD8B45AEF88F0290AD8B466EF88F0E8
:101220000F0AD8B472EF88F0010AD8B47EEF88F0C4
:10123000030AD8B48AEF88F0010AD8B496EF88F090
:10124000070AD8B4A2EF88F0010AD8B4AEEF88F04C
:10125000030AD8B4BAEF88F0C6EF88F0AA0E416E40
:10126000060E426E020E436EFF0E446E5CECA7F05B
:1012700003C7B1F604C7B2F605C7B3F606C7B4F69E
:10128000420E07010719D8A448EF89F04AEF89F008
:1012900056EF89F0D50E416E070E426E6B0E436E0F
:1012A000FF0E446E5CECA7F060EF89F0D50E416E46
:1012B000070E426E560E436EFF0E446E5CECA7F0B6
:1012C00008C7DCF709C7DEF7940E416E060E426EC2
:1012D000E00E436EFC0E446E5CECA7F00AC79CF671
:1012E0000BC79DF60CC79EF699C5A4F69AC5A5F640
:1012F0009BC5A6F69CC5A7F6010E8BEC98F0020ED6
:101300008BEC98F0030E8BEC98F0040E8BEC98F0BD
:101310001200566E5604D8A490EF89F092EF89F02F
:1013200006EF8AF00000D10E0501606FCC0E616FF0
:10133000AA0E626F390E636F300E646F300E656FE8
:10134000310E666F420E676F330E686F360E696F2F
:10135000310E6A6F320E6B6F330E6C6F2D0E6D6F28
:10136000340E6E6F350E6F6F200E706F110E576E4C
:10137000600E5724D96EDA6A050EDA22300EDF6E5F
:10138000572A240E5764C7EF89F0C9EF89F0B8EFE8
:1013900089F0DF0E0501856F0D0E866F0A0E876FCF
:1013A000C088090E476E1E0E466EE40EE82EFED76C
:1013B000462EFCD7472EFAD700D0586A600E582424
:1013C000D96EDA6A050EDA22DF5077ECA8F0D00E7B
:1013D000466ECA0EE82EFED7462EFCD7582A270E98
:1013E0005864F5EF89F0F7EF89F0DEEF89F0090E28
:1013F000476E1E0E466EE40EE82EFED7462EFCD734
:10140000472EFAD700D0C098DEEF8AF0020E5618A9
:10141000D8A40DEF8AF00FEF8AF05EEF8AF0C4ECEB
:10142000A3F0140E76EC97F039EC9FF0C08E1A6A98
:1014300028EF8AF0A90E1A24F66EF76AFB0EF7223F
:10144000F86A000EF8220800F55053ECA4F01A2AAE
:10145000A90E1A24F66EF76AFB0EF722F86A000E40
:10146000F8220800F5500009D8A439EF8AF03BEFC4
:101470008AF01AEF8AF01A6A240E1A6442EF8AF090
:1014800044EF8AF046EF8AF04DEF8AF01A50300FA1
:1014900053ECA4F01A2A3CEF8AF00D0E53ECA4F0A2
:1014A000F0ECA5F0C09E0000C4ECA3F0140E76ECA6
:1014B00097F0140EE9EC96F0DEEF8AF0030E561862
:1014C000D8A465EF8AF067EF8AF0DEEF8AF00501B5
:1014D000B92B390E486E300E496E350E4A6E300EFD
:1014E0004B6E450E526E420E536EB9A17AEF8AF0E2
:1014F0007CEF8AF08AEF8AF0310E4C6E310E4D6E21
:10150000320E4E6E320E4F6E330E506E330E516EE3
:1015100096EF8AF0340E4C6E340E4D6E350E4E6ED4
:10152000350E4F6E360E506E360E516EC08E000068
:101530005FECA3F0160E5AEC96F00000A2ECA5F0BA
:10154000596A480E5924D96EDA6A050EDA22DF503C
:10155000ADECA4F0592A0B0E5964B1EF8AF0B3EF49
:101560008AF0A1EF8AF00D0EADECA4F0290E476EC3
:10157000960E466E7F0EE82EFED7462EFCD7472EDF
:10158000FAD700000000C09EA30E476E570E466EAD
:10159000020EE82EFED7462EFCD7472EFAD700D0F3
:1015A000DEEF8AF0110E476E3C0E466ECB0EE82E33
:1015B000FED7462EFCD7472EFAD70000CEA4E3EF85
:1015C0008AF0E5EF8AF0D2EF8AF01200426E436AA9
:1015D000226A4250D8A4EFEF8AF0F1EF8AF096EF3A
:1015E0008BF06A0EE82EFED700D02550D8B4FBEF62
:1015F0008AF0FDEF8AF005EF8BF0080E416EE40EE5
:10160000E82EFED7412EFCD700D0120E416E4E0EB2
:10161000E82EFED7412EFCD7D1A611EF8BF013EFA9
:101620008BF016EF8BF043500109436E120E416EA2
:101630004E0EE82EFED7412EFCD7D1A622EF8BF01E
:1016400024EF8BF027EF8BF043500209436E120E0C
:10165000416E4E0EE82EFED7412EFCD7D1A633EFB9
:101660008BF035EF8BF038EF8BF043500409436E6D
:10167000120E416E4E0EE82EFED7412EFCD7D1A69B
:1016800044EF8BF046EF8BF049EF8BF043500809A5
:10169000436E120E416E4E0EE82EFED7412EFCD741
:1016A000D1A655EF8BF057EF8BF05AEF8BF04350EC
:1016B0001009436E120E416E4E0EE82EFED7412EDB
:1016C000FCD7D1A666EF8BF068EF8BF06BEF8BF059
:1016D00043502009436E120E416E4E0EE82EFED787
:1016E000412EFCD7D1A677EF8BF079EF8BF07CEF12
:1016F0008BF043504009436E120E416E4E0EE82EA1
:10170000FED7412EFCD7D1A688EF8BF08AEF8BF065
:101710008DEF8BF043508009436E120E416E4E0EDA
:10172000E82EFED7412EFCD724EF8CF00A0E416E36
:101730003E0EE82EFED7412EFCD7120E416E4E0E05
:10174000E82EFED7412EFCD7D1A6A9EF8BF0ABEF48
:101750008BF0AEEF8BF043500109436E120E416ED9
:101760004E0EE82EFED7412EFCD7D1A6BAEF8BF055
:10177000BCEF8BF0BFEF8BF043500209436E120EAB
:10178000416E4E0EE82EFED7412EFCD7D1A6CBEFF0
:101790008BF0CDEF8BF0D0EF8BF043500409436E0C
:1017A000120E416E4E0EE82EFED7412EFCD7D1A66A
:1017B000DCEF8BF0DEEF8BF0E1EF8BF043500809AC
:1017C000436E120E416E4E0EE82EFED7412EFCD710
:1017D000D1A6EDEF8BF0EFEF8BF0F2EF8BF04350F3
:1017E0001009436E120E416E4E0EE82EFED7412EAA
:1017F000FCD7D1A6FEEF8BF000EF8CF003EF8CF05E
:1018000043502009436E120E416E4E0EE82EFED755
:10181000412EFCD7D1A60FEF8CF011EF8CF014EF16
:101820008CF043504009436E120E416E4E0EE82E6E
:10183000FED7412EFCD7D1A620EF8CF022EF8CF002
:101840008DEF8BF08AEF8BF0D1A629EF8CF02BEF88
:101850008CF02DEF8CF0010E226E540E416E1C0E9A
:10186000E82EFED7412EFCD700D04350120040ECAA
:10187000A9F08EECA8F001ECA2F098ECA8F019EC1D
:10188000A9F07BECA6F0D7EC9FF0F3ECA0F067ECAE
:10189000A0F00001789104011895C994C184C19801
:1018A000C09CC09EC09ABF96C2940501E56BDE6BDA
:1018B000C098C188050E546E0F0E536EF10EE82EBF
:1018C000FED7532EFCD7542EFAD70000C08E050E3B
:1018D000546E0F0E536EF10EE82EFED7532EFCD72A
:1018E000542EFAD70000C08C050E546E0F0E536EA6
:1018F000F10EE82EFED7532EFCD7542EFAD7000057
:10190000C08A050E546E0F0E536EF10EE82EFED7F0
:10191000532EFCD7542EFAD70000C09A050E546EF1
:101920000F0E536EF10EE82EFED7532EFCD7542E19
:10193000FAD70000C09C050E546E0F0E536EF10EC8
:10194000E82EFED7532EFCD7542EFAD70000C09EA7
:10195000050E546E0F0E536EF10EE82EFED7532E69
:10196000FCD7542EFAD70000C198050E546E0F0E06
:10197000536EF10EE82EFED7532EFCD7542EFAD715
:101980000000000038ECA6F00000D68E25ECA9F08F
:1019900000001FECA9F000001B50D8A4D2EF8CF07F
:1019A000D4EF8CF0E3EF8CF0110E546E3C0E536EBE
:1019B000CB0EE82EFED7532EFCD7542EFAD70000BC
:1019C0001FECA9F00000000E0601786F000E796F81
:1019D000000E7A6F000E7B6F0501C66BA96B000EBF
:1019E000A86F256A3B6A1C6AC36BFE6BE16BE06BF8
:1019F000DF6B0601896B000E886FC08A386AD10ED2
:101A0000406F300E4E6F300E5C6FCC0E416F300E5B
:101A10004F6F300E5D6FAA0E426F300E506F300E5A
:101A20005E6F390E436F300E516F300E5F6F300EA8
:101A3000446F300E526F300E606F300E456F300EB7
:101A4000536F300E616F310E466F300E546F300E93
:101A5000626F420E476F300E556F300E636F330E5C
:101A6000486F300E566F300E646F360E496F300E71
:101A7000576FDF0E656F300E4A6F300E586F0D0EC8
:101A8000666F340E4B6F300E596F0A0E676F350E4E
:101A90004C6F300E5A6F300E4D6F300E5B6F120070
:101AA0003F0E246456EF8DF058EF8DF05BEF8EF013
:101AB00083ECA8F0C00E416E060E426EAE0E436E71
:101AC000FE0E446E5CECA7F0AA0E416E060E426E4E
:101AD000E40E436EFB0E446E5CECA7F0D50E416E37
:101AE000070E426E1B0E436EFE0E446E5CECA7F0BA
:101AF00022EF8EF0940E416E060E426E730E436E10
:101B0000FD0E446E5CECA7F0426A000E416E030EBF
:101B1000436E7BECA5F0426A010E416EE80E436E07
:101B20007BECA5F04FEF8EF0940E416E060E426EE8
:101B30009D0E436EFD0E446E5CECA7F0426A000EF3
:101B4000416E030E436E7BECA5F0426A010E416EBE
:101B5000E90E436E7BECA5F04FEF8EF0940E416ED4
:101B6000060E426EB20E436EFD0E446E5CECA7F0A4
:101B7000426A000E416E030E436E7BECA5F0426A92
:101B8000010E416EEA0E436E7BECA5F04FEF8EF036
:101B9000940E416E060E426EC70E436EFD0E446EED
:101BA0005CECA7F0426A000E416E030E436E7BECC4
:101BB000A5F0426A010E416EEB0E436E7BECA5F080
:101BC0004FEF8EF0940E416E060E426EDC0E436EA9
:101BD000FD0E446E5CECA7F0426A000E416E030EEF
:101BE000436E7BECA5F0426A010E416EEC0E436E33
:101BF0007BECA5F04FEF8EF0940E416E060E426E18
:101C0000880E436EFD0E446E5CECA7F0426A000E37
:101C1000416E040E436E7BECA5F0426A010E416EEC
:101C20004C0E436E7BECA5F04FEF8EF0940E416EA0
:101C3000060E426E730E436EFD0E446E5CECA7F012
:101C400084EF8DF0F20E4F6E030E506E5050030A6B
:101C5000D8B431EF8EF0070AD8B448EF8EF016EF03
:101C60008EF04F50E80AD8B47AEF8DF0010AD8B45C
:101C700094EF8DF0030AD8B4AEEF8DF0010AD8B41A
:101C8000C8EF8DF0070AD8B4E2EF8DF016EF8EF0B2
:101C90004F504C0AD8B4FCEF8DF016EF8EF0010EC9
:101CA0008BEC98F0020E8BEC98F0030E8BEC98F016
:101CB000040E8BEC98F012000601924B932BC7C2D6
:101CC00030F502C501F503C502F504C503F505C5E8
:101CD00004F506C505F530C506F50A0E3018D8A47A
:101CE00074EF8EF076EF8EF079EF8EF0010E050135
:101CF000EF6F720E3018D8A480EF8EF082EF8EF066
:101D000083EF8EF0326A640E326089EF8EF08BEFD3
:101D10008EF094EF8EF0000E3224D96EDA6A0A0E3D
:101D2000DA2230C5DFF4322A740E0218D8A49BEFF1
:101D30008EF09DEF8EF0BDEF8EF0780E0318D8A4D4
:101D4000A4EF8EF0A6EF8EF0BDEF8EF06F0E0518AB
:101D5000D8A4ADEF8EF0AFEF8EF0BDEF8EF06B0E2E
:101D60000618D8A4B6EF8EF0B8EF8EF0BDEF8EF067
:101D7000010E0501EA6F3EEF8FF06F0E0318D8A435
:101D8000C4EF8EF0C6EF8EF0E6EF8EF06B0E041807
:101D9000D8A4CDEF8EF0CFEF8EF0E6EF8EF00D0EE3
:101DA0000518D8A4D6EF8EF0D8EF8EF0E6EF8EF0BF
:101DB0000A0E0618D8A4DFEF8EF0E1EF8EF0E6EF02
:101DC0008EF0010E0501EB6F3EEF8FF04F0E031802
:101DD000D8A4EDEF8EF0EFEF8EF00EEF8FF0540EF3
:101DE0000418D8A4F6EF8EF0F8EF8EF00EEF8FF017
:101DF000410E0518D8A4FFEF8EF001EF8FF00EEF23
:101E00008FF0410E0618D8A408EF8FF00AEF8FF07C
:101E10000EEF8FF0010E316E3EEF8FF0450E02187F
:101E2000D8A415EF8FF017EF8FF03EEF8FF0520E22
:101E30000318D8A41EEF8FF020EF8FF03EEF8FF045
:101E4000520E0418D8A427EF8FF029EF8FF03EEF41
:101E50008FF04F0E0518D8A430EF8FF032EF8FF0CF
:101E60003EEF8FF0520E0618D8A439EF8FF03BEFFB
:101E70008FF03EEF8FF0010E0501EE6F400E2C2427
:101E8000D96EDA6A090EDA2230C5DFF42C2A3F0E49
:101E90002C644DEF8FF04FEF8FF050EF8FF02C6AE6
:101EA0000501E92B12000000C088110E466E3C0EA1
:101EB000456ECB0EE82EFED7452EFCD7462EFAD720
:101EC00000000000620E3818D8A469EF8FF06BEFA5
:101ED0008FF085EF8FF00000C188DC0E77ECA8F062
:101EE000476A200E77ECA8F0472A240E47647BEF60
:101EF0008FF07DEF8FF071EF8FF00D0E77ECA8F083
:101F00000A0E77ECA8F025EF90F0630E3818D8A4ED
:101F10008CEF8FF08EEF8FF0A8EF8FF00000C1886C
:101F2000DC0E77ECA8F0486A200E77ECA8F0482A7F
:101F3000240E48649EEF8FF0A0EF8FF094EF8FF0A7
:101F40000D0E77ECA8F00A0E77ECA8F025EF90F0D4
:101F5000060E3818D8A4AFEF8FF0B1EF8FF0CFEFA7
:101F60008FF00000C188496AC00E4924D96EDA6A30
:101F7000080EDA22DF5077ECA8F0D00E456ECA0EBC
:101F8000E82EFED7452EFCD7492A270E4964CBEF11
:101F90008FF0CDEF8FF0B4EF8FF025EF90F0020EC1
:101FA0003818D8A4D6EF8FF0D8EF8FF0DAEF8FF093
:101FB00025EF90F0040E3818D8A4E1EF8FF0E3EF8E
:101FC0008FF001EF90F0C1884A6A640E4A24D96EFE
:101FD000DA6A070EDA22DF5077ECA8F0D00E456EF1
:101FE000CA0EE82EFED7452EFCD74A2A270E4A6491
:101FF000FCEF8FF0FEEF8FF0E5EF8FF0000025EFA4
:1020000090F03804D8A407EF90F009EF90F025EF96
:1020100090F00000C1884B6A600E4B24D96EDA6ADA
:10202000050EDA22DF50EBEC93F0D00E456ECA0EAF
:10203000E82EFED7452EFCD74B2A270E4B6423EF04
:1020400090F025EF90F00CEF90F00000090E466E36
:102050001E0E456EE40EE82EFED7452EFCD7462E0A
:10206000FAD700D0C098C198D00E456ECA0EE82E9F
:10207000FED7452EFCD71200FAC43FF5FBC440F54D
:10208000A2A045EF90F047EF90F05EEF90F0B2A085
:102090004CEF90F04EEF90F05EEF90F002D85CEFD6
:1020A00090F00500FA6E0601F751FD6EF851FE6ED4
:1020B000F951FF6EFA50120016EF91F0A7A063EFEE
:1020C00090F065EF90F07CEF90F0B7A06AEF90F0A1
:1020D0006CEF90F07CEF90F002D87AEF90F0050072
:1020E000FA6E0601FD51FD6EFE51FE6EFF51FF6E50
:1020F000FA50120016EF91F0AAA081EF90F083EF52
:1021000090F09AEF90F0BAA088EF90F08AEF90F0FC
:102110009AEF90F002D898EF90F00500FA6E060161
:10212000F151FD6EF251FE6EF351FF6EFA50120046
:1021300016EF91F0A1A89FEF90F0A1EF90F0ACEF17
:1021400090F0B1A8A6EF90F0A8EF90F0ACEF90F06F
:10215000DAECA4F016EF91F0A2A2B1EF90F0B3EF99
:1021600090F0CAEF90F0B2A2B8EF90F0BAEF90F012
:10217000CAEF90F002D8C8EF90F00500FA6E0601A1
:10218000F451FD6EF551FE6EF651FF6EFA501200DD
:1021900016EF91F0A3A8CFEF90F0D1EF90F0DCEF25
:1021A00090F0B3A8D6EF90F0D8EF90F0DCEF90F07D
:1021B000ADECA0F016EF91F0A7A2E1EF90F0E3EF05
:1021C00090F0FAEF90F0B7A2E8EF90F0EAEF90F01D
:1021D000FAEF90F002D8F8EF90F00500FA6E0601E1
:1021E000FA51FD6EFB51FE6EFC51FF6EFA5012006B
:1021F00016EF91F0AAA2FFEF90F001EF91F016EF29
:1022000091F0BAA206EF91F008EF91F016EF91F07D
:1022100002D816EF91F00500FA6E0601EE51FD6E40
:10222000EF51FE6EF051FF6EFA50120040C5FBF404
:102230003FC5FAF41100466E090E476E4450D8A40B
:1022400024EF91F026EF91F028EF91F0080E476E01
:1022500046AE2DEF91F02FEF91F032EF91F0475015
:102260008009476E46AC37EF91F039EF91F03CEFC3
:1022700091F047504009476E46AA41EF91F043EF75
:1022800091F046EF91F047502009476E46A84BEF7A
:1022900091F04DEF91F050EF91F047501009476EDB
:1022A0004750F5ECA3F00009D8A459EF91F05BEF8B
:1022B00091F05DEF91F031ECA9F047500409476EC1
:1022C0004750F5ECA3F00009D8A469EF91F06BEF4B
:1022D00091F06DEF91F031ECA9F04750FB0B476E98
:1022E0004750F5ECA3F00009D8A479EF91F07BEF0B
:1022F00091F07DEF91F031ECA9F0090E476E44505A
:10230000D8A485EF91F087EF91F089EF91F0080E56
:10231000476E46A68EEF91F090EF91F093EF91F01B
:1023200047508009476E46A498EF91F09AEF91F0DC
:102330009DEF91F047504009476E46A2A2EF91F001
:10234000A4EF91F0A7EF91F047502009476E46A007
:10235000ACEF91F0AEEF91F0B1EF91F04750100972
:10236000476E4750F5ECA3F00009D8A4BAEF91F0FE
:10237000BCEF91F0BEEF91F031ECA9F047500409A9
:10238000476E4750F5ECA3F00009D8A4CAEF91F0CE
:10239000CCEF91F0CEEF91F031ECA9F04750FB0B70
:1023A000476E4750F5ECA3F00009D8A4DAEF91F09E
:1023B000DCEF91F0DEEF91F031ECA9F00D0E456EFF
:1023C000760EE82EFED7452EFCD700D012003F0E29
:1023D0002464EDEF91F0EFEF91F09FEF92F0030E98
:1023E000496EE80E486E89EC9FF00501DD6B83ECC9
:1023F000A8F0C00E416E060E426EAA0E436EFF0E8E
:10240000446E5CECA7F0AA0E416E060E426EF90E09
:10241000436EFB0E446E5CECA7F0D50E416E070ECA
:10242000426EC30E436EFE0E446E5CECA7F0940E3B
:10243000416E060E426EA10E436EFC0E446E5CECC5
:10244000A7F050EF92F0310E0601A36F77EF92F0F4
:10245000320E0601A36F77EF92F0330E0601A36FE1
:1024600077EF92F0340E0601A36F77EF92F0350EFE
:102470000601A36F77EF92F0360E0601A36F77EF98
:1024800092F0370E0601A36F77EF92F0380E060137
:10249000A36F77EF92F0390E0601A36F77EF92F0FA
:1024A0002150010AD8B423EF92F0030AD8B428EFE0
:1024B00092F0010AD8B42DEF92F0070AD8B432EFA7
:1024C00092F0010AD8B437EF92F0030AD8B43CEF87
:1024D00092F0010AD8B441EF92F00F0AD8B446EF57
:1024E00092F0010AD8B44BEF92F077EF92F01B50C4
:1024F000D8B47DEF92F07FEF92F084EF92F0320E3D
:102500000601BB6F87EF92F0310E0601BB6F2050C2
:10251000300FAE6F1F50300FAF6F1E50300FB06FC7
:102520001D50300FB16F010E8BEC98F0020E8BEC4A
:1025300098F0030E8BEC98F0040E8BEC98F01200E0
:102540000501D56B290E506E960E4F6E7F0EE82E4C
:10255000FED74F2EFCD7502EFAD700000000E8EC33
:102560009EF00501D86F00000501D805D8B4BBEF77
:1025700092F0BDEF92F0E8EF92F0000081ECA2F053
:10258000C08CC08EC08A090E506E1E0E4F6EE40EB7
:10259000E82EFED74F2EFCD7502EFAD700D0C09C85
:1025A000C09EC09A090E506E1E0E4F6EE40EE82EAD
:1025B000FED74F2EFCD7502EFAD700D0CEB4E3EF83
:1025C00092F0E5EF92F0C0EF92F0FF00C0EF92F0D2
:1025D0002CECA3F00501F405D8A4F1EF92F0F3EF91
:1025E00092F019EF93F0516AC08E090E506E1E0ED4
:1025F0004F6EE40EE82EFED74F2EFCD7502EFAD7A2
:1026000000D0C09E090E506E1E0E4F6EE40EE82ED6
:10261000FED74F2EFCD7502EFAD700D0512A050EE8
:10262000516415EF93F017EF93F0F4EF92F03DEF54
:1026300093F0526AC08E090E506E1E0E4F6EE40E5D
:10264000E82EFED74F2EFCD7502EFAD700D0C09ED2
:10265000090E506E1E0E4F6EE40EE82EFED74F2E62
:10266000FCD7502EFAD700D0522A020E52643BEF0C
:1026700093F03DEF93F01AEF93F0010E0501D56F43
:10268000C4ECA3F0140E76EC97F0140EE9EC96F07F
:102690001200476EC08EC4ECA3F0020E466EA00E70
:1026A000456E920EE82EFED7452EFCD7462EFAD761
:1026B00000D0140E76EC97F0020E466EA00E456E1A
:1026C000920EE82EFED7452EFCD7462EFAD700D024
:1026D000000039EC9FF0020E466EA00E456E920E81
:1026E000E82EFED7452EFCD7462EFAD700D0470459
:1026F000D8A47DEF93F07FEF93F0B9EF93F01A6ACF
:1027000090EF93F0A90E1A24F66EF76AFB0EF722EB
:10271000F86A000EF8220800F55053ECA4F01A2ACB
:10272000A90E1A24F66EF76AFB0EF722F86A000E5D
:10273000F8220800F5500009D8A4A1EF93F0A3EF08
:1027400093F082EF93F04B0E53ECA4F00501895106
:1027500053ECA4F005018A5153ECA4F005018B5110
:1027600053ECA4F005018C5153ECA4F00D0E53EC86
:10277000A4F0F0ECA5F00000C4ECA3F0020E466E4D
:10278000A00E456E920EE82EFED7452EFCD7462EA3
:10279000FAD700D0140E76EC97F0020E466EA00E1B
:1027A000456E920EE82EFED7452EFCD7462EFAD760
:1027B00000D0140EE9EC96F0020E466EA00E456EA7
:1027C000920EE82EFED7452EFCD7462EFAD700D023
:1027D000C09E00001200426EC194120E416E3E0E69
:1027E000E82EFED7412EFCD742A0F9EF93F0FBEF85
:1027F00093F0FEEF93F0C184FFEF93F0C194120EBB
:10280000416E3E0EE82EFED7412EFCD742A20BEFC2
:1028100094F00DEF94F010EF94F0C18411EF94F068
:10282000C194120E416E3E0EE82EFED7412EFCD70B
:1028300042A41DEF94F01FEF94F022EF94F0C184B6
:1028400023EF94F0C194120E416E3E0EE82EFED797
:10285000412EFCD742A62FEF94F031EF94F034EFE5
:1028600094F0C18435EF94F0C194120E416E3E0E87
:10287000E82EFED7412EFCD742A841EF94F043EF5B
:1028800094F046EF94F0C18447EF94F0C194120E97
:10289000416E3E0EE82EFED7412EFCD742AA53EFE2
:1028A00094F055EF94F058EF94F0C18459EF94F000
:1028B000C194120E416E3E0EE82EFED7412EFCD77B
:1028C00042AC65EF94F067EF94F06AEF94F0C18446
:1028D0006BEF94F0C194120E416E3E0EE82EFED7BF
:1028E000412EFCD742AE77EF94F079EF94F07CEF75
:1028F00094F0C1847DEF94F0C194120E416E3E0EAF
:10290000E82EFED7412EFCD7C184120E416E4E0E2A
:10291000E82EFED7412EFCD71200C08E00008FC7D4
:102920000DF50E6A0D500E6E0D6A070190510D26C1
:10293000000E0E2200000DC548F50EC549F589ECC4
:102940009FF02050300F4C6E1F50300F4D6E1E50B8
:10295000300F4E6E1D50300F4F6E110E0701911942
:10296000D8A4B5EF94F0B7EF94F0C5EF94F0310E22
:10297000506E310E516E320E526E320E536E330E59
:10298000546E330E556ED1EF94F0340E506E340EFB
:10299000516E350E526E350E536E360E546E360E27
:1029A000556E5FECA3F0160E5AEC96F00000A2EC08
:1029B000A5F04C50ADECA4F04D50ADECA4F04E5051
:1029C000ADECA4F04F50ADECA4F05050ADECA4F041
:1029D0005150ADECA4F05250ADECA4F05350ADEC1E
:1029E000A4F05450ADECA4F05550ADECA4F0450E5D
:1029F000ADECA4F0420EADECA4F00D0EADECA4F0E5
:102A0000290E4B6E960E4A6E7F0EE82EFED74A2E8A
:102A1000FCD74B2EFAD700000000C09EA30E4B6ED1
:102A2000570E4A6E020EE82EFED74A2EFCD74B2ECA
:102A3000FAD700D0110E07019119D8A422EF95F012
:102A400024EF95F029EF95F0DC0E53ECA5F02CEF78
:102A500095F0DD0E53ECA5F01200426A000E416EB7
:102A60006BECA8F0176E1728D8A439EF95F03BEF60
:102A700095F0CAEF95F09DEF95F0426A000E416E19
:102A8000030E436E7BECA5F0426A010E416EE80E28
:102A9000436E7BECA5F0CAEF95F0426A000E416EE2
:102AA000030E436E7BECA5F0426A010E416EE90E07
:102AB000436E7BECA5F0CAEF95F0426A000E416EC2
:102AC000030E436E7BECA5F0426A010E416EEA0EE6
:102AD000436E7BECA5F0CAEF95F0426A000E416EA2
:102AE000030E436E7BECA5F0426A010E416EEB0EC5
:102AF000436E7BECA5F0CAEF95F0426A000E416E82
:102B0000030E436E7BECA5F0426A010E416EEC0EA3
:102B1000436E7BECA5F0CAEF95F0426A000E416E61
:102B2000040E436E7BECA5F0426A010E416E4C0E22
:102B3000436E7BECA5F0CAEF95F045C547F546C559
:102B400048F54850030AD8B4ACEF95F0070AD8B45A
:102B5000C3EF95F03DEF95F04750E80AD8B43DEF4C
:102B600095F0010AD8B44DEF95F0030AD8B45DEFA3
:102B700095F0010AD8B46DEF95F0070AD8B47DEF4F
:102B800095F03DEF95F047504C0AD8B48DEF95F095
:102B90003DEF95F01200456EBFECA1F042EF96F0CC
:102BA0001A6AE1EF95F0960E1A24F66EF76AFB0E9C
:102BB000F722F86A000EF8220800F550ADECA4F0F8
:102BC0001A2A960E1A24F66EF76AFB0EF722F86A96
:102BD000000EF8220800F5500009D8A4F2EF95F095
:102BE000F4EF95F0D3EF95F04DEF96F01A6A07EFFA
:102BF00096F0700E1A24F66EF76AFB0EF722F86A4A
:102C0000000EF8220800F550ADECA4F01A2A700E60
:102C10001A24F66EF76AFB0EF722F86A000EF82205
:102C20000800F5500009D8A418EF96F01AEF96F0B6
:102C3000F9EF95F04DEF96F01A6A2DEF96F0960E9B
:102C40001A24F66EF76AFB0EF722F86A000EF822D5
:102C50000800F550ADECA4F01A2A960E1A24F66E70
:102C6000F76AFB0EF722F86A000EF8220800F5500A
:102C70000009D8A43EEF96F040EF96F01FEF96F0D3
:102C80004DEF96F04550140AD8B4D0EF95F0020AF3
:102C9000D8B4F6EF95F01CEF96F0090E446E1E0EB8
:102CA000436EE40EE82EFED7432EFCD7442EFAD70F
:102CB00000D01200456EBFECA1F0D1EF96F01A6A79
:102CC00070EF96F0380E1A24F66EF76AFB0EF722B4
:102CD000F86A000EF8220800F550ADECA4F01A2AAC
:102CE000380E1A24F66EF76AFB0EF722F86A000E09
:102CF000F8220800F5500009D8A481EF96F083EF80
:102D000096F062EF96F0DCEF96F01A6A96EF96F086
:102D1000150E1A24F66EF76AFB0EF722F86A000EFB
:102D2000F8220800F550ADECA4F01A2A150E1A246A
:102D3000F66EF76AFB0EF722F86A000EF82208001A
:102D4000F5500009D8A4A7EF96F0A9EF96F088EF08
:102D500096F0DCEF96F01A6ABCEF96F0380E1A2463
:102D6000F66EF76AFB0EF722F86A000EF8220800EA
:102D7000F550ADECA4F01A2A380E1A24F66EF76A54
:102D8000FB0EF722F86A000EF8220800F550000941
:102D9000D8A4CDEF96F0CFEF96F0AEEF96F0DCEF43
:102DA00096F04550140AD8B45FEF96F0020AD8B4F2
:102DB00085EF96F0ABEF96F0090E446E1E0E436E53
:102DC000E40EE82EFED7432EFCD7442EFAD700D0CF
:102DD0001200446E39EC9FF060EF97F01A6AFFEF33
:102DE00096F0960E1A24F66EF76AFB0EF722F86A32
:102DF000000EF8220800F55053ECA4F01A2A960EA3
:102E00001A24F66EF76AFB0EF722F86A000EF82213
:102E10000800F5500009D8A410EF97F012EF97F0D2
:102E2000F1EF96F06BEF97F01A6A25EF97F0700EBE
:102E30001A24F66EF76AFB0EF722F86A000EF822E3
:102E40000800F55053ECA4F01A2A700E1A24F66EFE
:102E5000F76AFB0EF722F86A000EF8220800F55018
:102E60000009D8A436EF97F038EF97F017EF97F0F6
:102E70006BEF97F01A6A4BEF97F0960E1A24F66EE6
:102E8000F76AFB0EF722F86A000EF8220800F550E8
:102E900053ECA4F01A2A960E1A24F66EF76AFB0E6B
:102EA000F722F86A000EF8220800F5500009D8A4AD
:102EB0005CEF97F05EEF97F03DEF97F06BEF97F0D8
:102EC0004450140AD8B4EEEF96F0020AD8B414EFC6
:102ED00097F03AEF97F003ECA5F0150E436EC60E8F
:102EE000E82EFED7432EFCD700D01200446E39ECFA
:102EF0009FF0EDEF97F01A6A8CEF97F0380E1A24D6
:102F0000F66EF76AFB0EF722F86A000EF822080048
:102F1000F55053ECA4F01A2A380E1A24F66EF76A0C
:102F2000FB0EF722F86A000EF8220800F55000099F
:102F3000D8A49DEF97F09FEF97F07EEF97F0F8EF12
:102F400097F01A6AB2EF97F0150E1A24F66EF76A28
:102F5000FB0EF722F86A000EF8220800F55053EC39
:102F6000A4F01A2A150E1A24F66EF76AFB0EF72241
:102F7000F86A000EF8220800F5500009D8A4C3EF43
:102F800097F0C5EF97F0A4EF97F0F8EF97F01A6A73
:102F9000D8EF97F0380E1A24F66EF76AFB0EF72278
:102FA000F86A000EF8220800F55053ECA4F01A2A33
:102FB000380E1A24F66EF76AFB0EF722F86A000E36
:102FC000F8220800F5500009D8A4E9EF97F0EBEFDC
:102FD00097F0CAEF97F0F8EF97F04450140AD8B47E
:102FE0007BEF97F0020AD8B4A1EF97F0C7EF97F004
:102FF00003ECA5F0150E436EC60EE82EFED7432E49
:10300000FCD700D01200300EF5ECA3F00D0E486E88
:10301000760EE82EFED7482EFCD700D0340EF5EC05
:10302000A3F00D0E486E760EE82EFED7482EFCD784
:1030300000D0300EF5ECA3F00D0E486E760EE82EA3
:10304000FED7482EFCD700D0340EF5ECA3F00D0EC1
:10305000486E760EE82EFED7482EFCD700D0300EF4
:10306000F5ECA3F00D0E486E760EE82EFED7482E36
:10307000FCD700D0340EF5ECA3F00D0E486E760EA2
:10308000E82EFED7482EFCD700D0300EF5ECA3F08A
:103090000D0E486E760EE82EFED7482EFCD700D0D7
:1030A000200EF5ECA3F00D0E486E760EE82EFED73E
:1030B000482EFCD700D0240EF5ECA3F00D0E486E80
:1030C000760EE82EFED7482EFCD700D0200EF5EC69
:1030D000A3F00D0E486E760EE82EFED7482EFCD7D4
:1030E00000D0000E446E280E1BEC91F0000E446ED2
:1030F000060E1BEC91F0000E446E0C0E1BEC91F0D2
:10310000000E446E010E1BEC91F0000E446E800E1A
:103110001BEC91F012004A6EFEEF98F0010E486E23
:10312000010E41ECA2F04B6A010E446EC00E4B241E
:10313000D96EDA6A060EDA22DF501BEC91F04B2AC8
:10314000130E4B64A6EF98F0A8EF98F094EF98F068
:1031500011EF99F0010E486E020E41ECA2F04C6A9C
:10316000010E446EAA0E4C24D96EDA6A060EDA22DB
:10317000DF501BEC91F04C2A130E4C64C2EF98F018
:10318000C4EF98F0B0EF98F011EF99F0010E486E8F
:10319000030E41ECA2F04D6A010E446ED50E4D2493
:1031A000D96EDA6A070EDA22DF501BEC91F04D2A55
:1031B000130E4D64DEEF98F0E0EF98F0CCEF98F04E
:1031C00011EF99F0010E486E040E41ECA2F04E6A28
:1031D000010E446E940E4E24D96EDA6A060EDA227F
:1031E000DF501BEC91F04E2A130E4E64FAEF98F06C
:1031F000FCEF98F0E8EF98F011EF99F04A50010ACF
:10320000D8B48EEF98F0030AD8B4AAEF98F0010A68
:10321000D8B4C6EF98F0070AD8B4E2EF98F011EFEF
:1032200099F01200436E74EF99F0190E426E5A0E27
:10323000416EB20EE82EFED7412EFCD7422EFAD7B1
:1032400087EF99F0C08E7A0E426EC10E416E820EEB
:10325000E82EFED7412EFCD7422EFAD787EF99F001
:10326000C08EF40E426E820E416E050EE82EFED721
:10327000412EFCD7422EFAD7000087EF99F0C08E7E
:103280007A0E426EC10E416E820EE82EFED7412E9E
:10329000FCD7422EFAD7F40E426E820E416E050E16
:1032A000E82EFED7412EFCD7422EFAD7000087EF3A
:1032B00099F0C08EF40E426E820E416E050EE82E1D
:1032C000FED7412EFCD7422EFAD70000F40E426EF4
:1032D000820E416E050EE82EFED7412EFCD7422EFF
:1032E000FAD7000087EF99F04350000AD8B415EFE1
:1032F00099F0010AD8B422EF99F0030AD8B430EF5C
:1033000099F0010AD8B43FEF99F059EF99F0C09EB7
:10331000190E426E5A0E416EB20EE82EFED7412EA5
:10332000FCD7422EFAD71200416E41AE9AEF99F0C7
:103330009CEF99F0A0EF99F0BF80C780A2EF99F0C1
:10334000BF90C79046ECA8F041ACA9EF99F0ABEF65
:1033500099F0AFEF99F0BF80C780B1EF99F0BF90BF
:10336000C79046ECA8F041AAB8EF99F0BAEF99F0EF
:10337000BEEF99F0BF80C780C0EF99F0BF90C790B3
:1033800046ECA8F041A8C7EF99F0C9EF99F0CDEF4E
:1033900099F0BF80C780CFEF99F0BF90C79046ECFF
:1033A000A8F041A6D6EF99F0D8EF99F0DCEF99F0AC
:1033B000BF80C780DEEF99F0BF90C79046ECA8F0C1
:1033C00041A4E5EF99F0E7EF99F0EBEF99F0BF80BA
:1033D000C780EDEF99F0BF90C79046ECA8F041A2EE
:1033E000F4EF99F0F6EF99F0FAEF99F0BF80C7800B
:1033F000FCEF99F0BF90C79046ECA8F041A003EF16
:103400009AF005EF9AF009EF9AF0BF80C7800BEFB2
:103410009AF0BF90C79046ECA8F0BF80C7801A0E04
:10342000E82EFED700D012003F0E24641AEF9AF067
:103430001CEF9AF092EF9AF0030E496EE80E486E78
:1034400089EC9FF00501DD6B83ECA8F0C00E416EA6
:10345000060E426EAA0E436EFF0E446E5CECA7F0A1
:103460006D0E0601D36F1B50D8B439EF9AF03BEFC5
:103470009AF05BEF9AF0AA0E416E060E426E5A0E5B
:10348000436EFE0E446E5CECA7F0D50E416E070E47
:10349000426EE40E436EFB0E446E5CECA7F0940E9D
:1034A000416E060E426EE40E436EFB0E446E5CEC03
:1034B000A7F079EF9AF0AA0E416E060E426ECE0E7C
:1034C000436EFB0E446E5CECA7F0D50E416E070E0A
:1034D000426EE40E436EFB0E446E5CECA7F0940E5D
:1034E000416E060E426EE40E436EFB0E446E5CECC3
:1034F000A7F02050300F0601AE6F1F50300FAF6F96
:103500001E50300FB06F1D50300FB16F010E8BEC9D
:1035100098F0020E8BEC98F0030E8BEC98F0040EF2
:103520008BEC98F01200486EC08E0000390E496E88
:10353000300E4A6E300E4B6E300E4C6E4850D8B482
:10354000A4EF9AF0A6EF9AF0B4EF9AF0310E4D6E18
:10355000310E4E6E320E4F6E320E506E330E516E75
:10356000330E526EC0EF9AF0340E4D6E340E4E6E26
:10357000350E4F6E350E506E360E516E360E526E43
:103580005FECA3F0160E5AEC96F00000A2ECA5F04A
:103590004950ADECA4F04A50ADECA4F04B50ADEC6A
:1035A000A4F04C50ADECA4F04D50ADECA4F04E5056
:1035B000ADECA4F04F50ADECA4F05050ADECA4F045
:1035C0005150ADECA4F05250ADECA4F0450EADEC72
:1035D000A4F0420EADECA4F00D0EADECA4F0290E5B
:1035E000476E960E466E7F0EE82EFED7462EFCD70F
:1035F000472EFAD700000000C09EA30E476E570E5C
:10360000466E020EE82EFED7462EFCD7472EFAD77E
:1036100000D012001B6A290E476E960E466E7F0E72
:10362000E82EFED7462EFCD7472EFAD70000000022
:1036300038ECA1F00501D86F00000501D805D8B419
:1036400024EF9BF026EF9BF04EEF9BF0486AC08C76
:10365000090E476E1E0E466EE40EE82EFED7462E6D
:10366000FCD7472EFAD700D0C09C090E476E1E0E1D
:10367000466EE40EE82EFED7462EFCD7472EFAD72C
:1036800000D0482A020E486448EF9BF04AEF9BF0B6
:1036900027EF9BF000001B6A74EF9BF0496AC08E15
:1036A000090E476E1E0E466EE40EE82EFED7462E1D
:1036B000FCD7472EFAD700D0C09E090E476E1E0ECB
:1036C000466EE40EE82EFED7462EFCD7472EFAD7DC
:1036D00000D0492A020E496470EF9BF072EF9BF014
:1036E0004FEF9BF0010E1B6E5FECA3F0160E5AEC31
:1036F00096F0160ECBEC95F012004F6E3F0E246440
:1037000084EF9BF086EF9BF0EEEF9BF0030E496E8B
:10371000E80E486E89EC9FF00501DD6B83ECA8F0A4
:10372000C00E416E060E426EAA0E436EFF0E446E30
:103730005CECA7F0AA0E416E060E426E450E436E7B
:10374000FE0E446E5CECA7F0D50E416E070E426E85
:10375000300E436EFE0E446E5CECA7F0940E416E8C
:10376000060E426EE40E436EFB0E446E5CECA7F058
:103770001B50D8B4BEEF9BF0C0EF9BF0C3EF9BF0A3
:10378000320E0601BB6F2050300F0601AE6F1F5086
:10379000300FAF6F1E50300FB06F1D50300FB16F34
:1037A0004F04D8A4D6EF9BF0D8EF9BF0E2EF9BF04C
:1037B000940E416E060E426EF50E436EFC0E446E84
:1037C0005CECA7F0010E8BEC98F0020E8BEC98F0FD
:1037D000030E8BEC98F0040E8BEC98F01200050EA3
:1037E000456E0F0E446EF10EE82EFED7442EFCD728
:1037F000452EFAD7000005019D699E699F69D1A6F3
:1038000004EF9CF006EF9CF058EF9CF0256A126ADA
:10381000000E116ED69E5FECA8F02EECA9F0B198C8
:103820004BEF9CF0D1B617EF9CF019EF9CF04BEFEB
:103830009CF0010EE6EC8AF0236E2250D8B423EF00
:103840009CF025EF9CF04BEF9CF033EF9CF023C5F0
:103850009DF542EF9CF023C59EF542EF9CF023C5F9
:103860009FF542EF9CF02550000AD8B427EF9CF05A
:10387000010AD8B42BEF9CF0030AD8B42FEF9CF0C8
:1038800042EF9CF0000E2524D96EDA6A060EDA2289
:1038900023C5DFF4252AB1A850EF9CF052EF9CF02D
:1038A00012EF9CF025C511F5126A010E0501E56FB6
:1038B0002BECA9F0D68E00001200680E2724D96EDA
:1038C000DA6A060EDA22DF6A0201EBA76AEF9CF0E1
:1038D0006CEF9CF081EF9CF0680E2724D96EDA6AB9
:1038E000060EDA22DF8202D881EF9CF00500FA6E24
:1038F0000601D951FD6EDA51FE6EDB51FF6EFA50B2
:1039000012000201EBA387EF9CF089EF9CF09EEF81
:103910009CF0680E2724D96EDA6A060EDA22DF845C
:1039200002D89EEF9CF00500FA6E0701EE51FD6E85
:10393000EF51FE6EF051FF6EFA501200680E272410
:10394000D96EDA6A060EDA22DF50D8B4AAEF9CF0FC
:10395000ACEF9CF0BCEF9CF002D8BAEF9CF00500F5
:10396000FA6E0701EB51FD6EEC51FE6EED51FF6EEC
:10397000FA501200BEEF9CF0F3ECA7F01200000E1C
:103980002C24D96EDA6A080EDA22DF6A0201D8A77F
:10399000CCEF9CF0CEEF9CF0E3EF9CF0000E2C24DB
:1039A000D96EDA6A080EDA22DF8202D8E3EF9CF0E1
:1039B0000500FA6E0601E251FD6EE351FE6EE45120
:1039C000FF6EFA5012000201D8A3E9EF9CF0EBEF72
:1039D0009CF000EF9DF0000E2C24D96EDA6A080EE0
:1039E000DA22DF8402D800EF9DF00500FA6E0601AE
:1039F000DF51FD6EE051FE6EE151FF6EFA50120094
:103A0000000E2C24D96EDA6A080EDA22DF50D8B400
:103A10000CEF9DF00EEF9DF01EEF9DF002D81CEF15
:103A20009DF00500FA6E0601DC51FD6EDD51FE6E63
:103A3000DE51FF6EFA50120020EF9DF05CEC8EF02C
:103A40001200400E3424D96EDA6A080EDA22DF6AD8
:103A50000201B2A72EEF9DF030EF9DF045EF9DF0F3
:103A6000400E3424D96EDA6A080EDA22DF8202D8D8
:103A700045EF9DF00500FA6E0601EB51FD6EEC512D
:103A8000FE6EED51FF6EFA5012000201B2A34BEF31
:103A90009DF04DEF9DF062EF9DF0400E3424D96E05
:103AA000DA6A080EDA22DF8402D862EF9DF00500A0
:103AB000FA6E0601E851FD6EE951FE6EEA51FF6EA5
:103AC000FA501200400E3424D96EDA6A080EDA2257
:103AD000DF50D8B46EEF9DF070EF9DF080EF9DF059
:103AE00002D87EEF9DF00500FA6E0601E551FD6EED
:103AF000E651FE6EE751FF6EFA50120082EF9DF024
:103B0000C6EC85F0120005019D699E699F69256AD2
:103B1000D69E5FECA8F02EECA9F0B198E40E00D090
:103B200000D0E82EFCD700D000D0D6EF9DF0D1B663
:103B30009CEF9DF09EEF9DF0D0EF9DF0000EE6EC27
:103B40008AF0236E2250D8B4A8EF9DF0AAEF9DF022
:103B5000D0EF9DF0B8EF9DF023C59DF5C7EF9DF028
:103B600023C59EF5C7EF9DF023C59FF5C7EF9DF0D8
:103B70002550000AD8B4ACEF9DF0010AD8B4B0EFDC
:103B80009DF0030AD8B4B4EF9DF0C7EF9DF0000E8E
:103B90002524D96EDA6A060EDA2223C5DFF4252A37
:103BA00025C511F5126A010E0501E56FB1A8DBEF1D
:103BB0009DF0DDEF9DF097EF9DF02BECA9F0D68EF8
:103BC000000012003F0E2464E8EF9DF0EAEF9DF044
:103BD0003CEF9EF083ECA8F0C00E416E060E426EE4
:103BE000950E436EFF0E446E5CECA7F0AA0E416E7C
:103BF000060E426E6F0E436EFE0E446E5CECA7F036
:103C00004F6A650E4F24D96EDA6A070EDA22D50E96
:103C10004F24E16EE26A070EE222DFC4E7F44F2A86
:103C2000130E4F6416EF9EF018EF9EF001EF9EF01A
:103C3000506A790E5024D96EDA6A070EDA22940E91
:103C40005024E16EE26A060EE222DFC4E7F4502A55
:103C5000100E50642EEF9EF030EF9EF019EF9EF0A4
:103C6000010E8BEC98F0020E8BEC98F0030E8BECAF
:103C700098F0040E8BEC98F01200640EF66E500E65
:103C8000F76E010EF86E01EEC4F310EE27F0090096
:103C9000F5C4EEF4E550E150FAE1B40EF66E4C0EC8
:103CA000F76E010EF86E01EE94F210EE42F009008C
:103CB000F5C4EEF4E550E150FAE102EE00F2E40E54
:103CC000EE6AE806FDE102EE00F110EE00F1EE6AA8
:103CD000E550E150FCE1E250FAE102EE00F0E80EBE
:103CE000EE6AE806FDE101EE00F3C40EEE6AE806B6
:103CF000FDE101EE00F2940EEE6AE806FDE101EE50
:103D000060F1A00EEE6AE806FDE101EE01F13C0E65
:103D1000EE6AE806FDE10401080E5D6F000E5E6FBD
:103D2000000E5F6F000100EF80F0150E416EC60EB1
:103D3000E82EFED7412EFCD700D00501A84BA92BB9
:103D4000DE51D8B4A6EF9EF0A8EF9EF0D6EF9EF01D
:103D50000000880E0501A65D130EA759D8B0B3EF79
:103D60009EF0B5EF9EF0C1EF9EF0040E2160BBEF18
:103D70009EF0BDEF9EF0C1EF9EF0A64BA72BD6EFB5
:103D80009EF0212A040E2160C8EF9EF0CAEF9EF03B
:103D9000D3EF9EF0010EE06FA76B000EA66F010E31
:103DA0001C6ED6EF9EF0010EDF6F216AE80EA85D53
:103DB000030EA959D8A0DFEF9EF0E1EF9EF0E7EFE8
:103DC0009EF0A96B000EA86FBC2BB04BB12B12005C
:103DD00039EC9FF0BF86520E466E2B0E456E000EDC
:103DE000E82EFED7452EFCD7462EFAD700D03A5003
:103DF000D8B4FDEF9EF0FFEF9EF002EF9FF0010EB2
:103E000038EF9FF000000501D96B2FEF9FF0F9EC20
:103E1000A2F00E6A000E0D6E20EF9FF0150E456E9B
:103E2000C60EE82EFED7452EFCD700D03A50D8B4A7
:103E30001CEF9FF01EEF9FF020EF9FF0FFEF9EF032
:103E40000D4A0E2AD00E0D5C070E0E58D8A02BEF8F
:103E50009FF02DEF9FF00EEF9FF00501D92BD95168
:103E6000D8B435EF9FF037EF9FF007EF9FF0030EC8
:103E700012000501FF6BCFB240EF9FF042EF9FF0C1
:103E800044EF9FF0010EFF6F426AC00E4224D96ECC
:103E9000DA6A090EDA22200EDF6E800E4224D96E15
:103EA000DA6A080EDA22200EDF6E422A3F0E4264E2
:103EB0005CEF9FF05EEF9FF045EF9FF0416A000ED0
:103EC0004124D96EDA6A070EDA22200EDF6E412A0B
:103ED000630E41646EEF9FF070EF9FF05FEF9FF015
:103EE0000501B56B000EB46F3C6A3B6AFE6BFD6B5F
:103EF000FC6BFB6B376A366A400E356E346A336A88
:103F0000F16B3A6AFA6BF96BF86BF76BF66BF56B62
:103F1000120048C50DF549C50EF500000DC541F567
:103F20000EC542F5030E446EE80E436EC0ECA2F0DF
:103F30004150206E0DC541F50EC542F5030E446E8D
:103F4000E80E436E92ECA3F041C50FF542C510F5A3
:103F50000FC541F510C542F5446A640E436EC0ECCE
:103F6000A2F041501F6E0FC541F510C542F5446ADD
:103F7000640E436E92ECA3F041C50FF542C510F5F7
:103F80000FC541F510C542F5446A0A0E436EC0ECF8
:103F9000A2F041501E6E0FC541F510C542F5446AAE
:103FA0000A0E436E92ECA3F041501D6E1200A290D7
:103FB000420E416E3A0E426E010E436EEFECA8F0D7
:103FC000A2923A0E416E4E0E426E010E436EE8EC26
:103FD000A8F00201A56BA66BA76BA86BA96BAA6BD7
:103FE000B00EAB6F800EAC6FAD6B820EAE6F060E77
:103FF000AF6FB06BB16BB26BB36B900E416E520E84
:10400000426E010E436EFDECA8F08E0E416E520E14
:10401000426E010E436EF6ECA8F0740E416E520E25
:10402000426E010E436E04ECA9F00501F06B376A95
:10403000366A400E356E346A336AF16BA280120024
:10404000010E536E56EFA0F0426A000E416E6BEC0B
:10405000A8F0196E426A010E416E6BECA8F0186E62
:1040600019C513F5146A1350146E136A18501326E9
:10407000000E1422E80E135C030E1458D8A043EF70
:10408000A0F045EFA0F048EFA0F0536A56EFA0F083
:10409000290E526E960E516E7F0EE82EFED7512ECF
:1040A000FCD7522EFAD7000050EC8DF05350D8A414
:1040B0005CEFA0F05EEFA0F024EFA0F01450176EBC
:1040C00013C5B8F513C584F614C585F61200A7907C
:1040D0007E0E416E390E426E010E436ECCECA8F09E
:1040E000A792FA0E416E4D0E426E010E436EC5EC64
:1040F000A8F00201CB6BCD6BCF6BB00ED16F800EF1
:10410000D26FD36B820ED46F060ED56FD66BD76B82
:10411000D86BD96B8C0E416E520E426E010E436EFF
:10412000DAECA8F08A0E416E520E426E010E436E1A
:10413000D3ECA8F06E0E416E520E426E010E436E2D
:10414000E1ECA8F00501E86B2F6A2E6A400E2D6E97
:104150002C6A2B6AE96BA7801200B398AAC53DF5BB
:10416000ABC53EF508ECA8F0CFEFA0F0C09A010E69
:10417000E46FDBEFA0F0C08AE46BE32BB04BB12B14
:10418000AE4BAF2B3B0EE365C8EFA0F0CAEFA0F03B
:10419000DBEFA0F0E36BAC4BAD2BDBEFA0F0050148
:1041A000E451000AD8B4B6EFA0F0010AD8B4BBEFCE
:1041B000A0F0DBEFA0F0A351A411A511D8B4E3EF58
:1041C000A0F0E5EFA0F0F2EFA0F002D8F2EFA0F03F
:1041D0000500FA6EA351FD6EA451FE6EA551FF6E4F
:1041E000FA5012001200AA90BA0E416E380E426EBA
:1041F000010E436EA9ECA8F0AA92BA0E416E4D0EC4
:10420000426E010E436EA2ECA8F00201DE6BE06B81
:10421000E26BA00EE46F800EE56FE66B8A0EE76F2F
:10422000E86BE96BEA6BEB6BEC6B880E416E520E40
:10423000426E010E436EB7ECA8F0860E416E520E30
:10424000426E010E436EB0ECA8F0680E416E520E45
:10425000426E010E436EBEECA8F00501E66B2A6AC1
:10426000296A400E286E276A266AE76BAA80120028
:10427000BFECA1F0C28400003150D8B442EFA1F0ED
:1042800044EFA1F047EFA1F0010E7CEFA1F0050192
:10429000D96B73EFA1F025ECA4F00E6A000E0D6E41
:1042A00064EFA1F0150E446EC60EE82EFED7442E24
:1042B000FCD700D03150D8B460EFA1F062EFA1F08C
:1042C00064EFA1F044EFA1F00D4A0E2AD00E0D5C70
:1042D000070E0E58D8A06FEFA1F071EFA1F052EFCA
:1042E000A1F00501D92BD951D8B479EFA1F07BEF1A
:1042F000A1F04BEFA1F0030E1200400E446E4450AB
:1043000097ECA7F00009D8B488EFA1F08AEFA1F0EC
:104310008DEFA1F04450BEEFA1F000004450020F19
:10432000446E4E0E446497EFA1F099EFA1F07FEF39
:10433000A1F02450D8A49FEFA1F0A1EFA1F0BDEF10
:10434000A1F0700E456E455097ECA7F00009D8B467
:10435000ACEFA1F0AEEFA1F0B1EFA1F04550BEEF90
:10436000A1F000004550020F456E7E0E4564BBEF84
:10437000A1F0BDEFA1F0A3EFA1F0000E1200426A80
:10438000400E4224D96EDA6A090EDA22200EDF6E60
:10439000800E4224D96EDA6A090EDA22200EDF6E10
:1043A000422A3F0E4264D7EFA1F0D9EFA1F0C0EF4F
:1043B000A1F0416A000E4124D96EDA6A0A0EDA22AF
:1043C000200EDF6E412A630E4164E9EFA1F0EBEFAE
:1043D000A1F0DAEFA1F00601936B000E926F326A42
:1043E0000501EF6B2F6A2E6A400E2D6E2C6A2B6A28
:1043F000E96BEE6BED6BEE6BEC6BEB6BEA6B316AC2
:104400001200C26AC16ABE6ABF6AC06ACA6A0F0E77
:10441000C66EE70EC76EC86AEA0EC96E0401186B55
:10442000106B086B206B006BA20E196F216B020ED4
:10443000096F0F0E016F116B0201896B886B876B1F
:10444000866B0401226B026B0A6B126B1A6B036999
:104450000B6913691B69070E236F04690C691469E2
:104460001C690F0E246F090E0201786F260E056F6E
:10447000200E0D6F0A0E766F0D0E726F290E206FD3
:104480001200496E48066DEFA2F0000E446E4850CF
:10449000800F1BEC91F080EFA2F0000E446E4850AC
:1044A000C00F1BEC91F080EFA2F0000E446E48505C
:1044B000940F1BEC91F080EFA2F0000E446E485078
:1044C000D40F1BEC91F080EFA2F0000E446E485028
:1044D000800F1BEC91F080EFA2F04950010AD8B494
:1044E00045EFA2F0030AD8B44DEFA2F0010AD8B408
:1044F00055EFA2F0070AD8B45DEFA2F065EFA2F085
:1045000012003F0E246487EFA2F089EFA2F0BFEF04
:10451000A2F083ECA8F0C00E416E060E426E770E3C
:10452000436EFC0E446E5CECA7F0AA0E416E060EC4
:10453000426EE40E436EFB0E446E5CECA7F0D50EAB
:10454000416E070E426E170E436EFF0E446E5CEC1A
:10455000A7F0940E416E060E426EE40E436EFB0E03
:10456000446E5CECA7F0010E8BEC98F0020E8BEC25
:1045700098F0030E8BEC98F0040E8BEC98F0120080
:10458000466A000E456E43504410D8B4CAEFA2F0FC
:10459000CCEFA2F0F4EFA2F0010E476ED4EFA2F040
:1045A000D89043364436472A44AED9EFA2F0DBEF29
:1045B000A2F0D0EFA2F0D890453646364350415C89
:1045C00044504258D8A0E7EFA2F0E9EFA2F0EEEF96
:1045D000A2F04350415E4450425A4580D890443244
:1045E0004332472EDBEFA2F045C541F546C542F503
:1045F000120039EC9FF01A6A0CEFA3F0C50E1A24D2
:10460000F66EF76AFB0EF722F86A000EF822080031
:10461000F55053ECA4F01A2AC50E1A24F66EF76A68
:10462000FB0EF722F86A000EF8220800F550000988
:10463000D8A41DEFA3F01FEFA3F0FEEFA2F0090E28
:10464000446E1E0E436EE40EE82EFED7432EFCD7BA
:10465000442EFAD700D0120021EEC4F311EE45F13A
:10466000090EDBC4E3F4E806FCE239EC9FF01A6AB9
:1046700044EFA3F0450E1A24D96EDA6A050EDA2249
:10468000DF5053ECA4F01A2A450E1A24D96EDA6AC8
:10469000050EDA22DF50D8A450EFA3F052EFA3F0BA
:1046A0003AEFA3F0150E446E4B0E436EBE0EE82E8D
:1046B000FED7432EFCD7442EFAD700D01200BFEC11
:1046C000A1F01A6A72EFA3F0BC0E1A24F66EF76A14
:1046D000FB0EF722F86A000EF8220800F550ADEC48
:1046E000A4F01A2ABC0E1A24F66EF76AFB0EF72203
:1046F000F86A000EF8220800F5500009D8A483EFEC
:10470000A3F085EFA3F064EFA3F0090E446E1E0E34
:10471000436EE40EE82EFED7432EFCD7442EFAD784
:1047200000D0120043504410D8B499EFA3F09BEF8F
:10473000A3F0BFEFA3F0010E456EA3EFA3F0D89056
:1047400043364436452A44AEA8EFA3F0AAEFA3F0BF
:104750009FEFA3F04350415C44504258D8A0B3EFC0
:10476000A3F0B5EFA3F0B9EFA3F04350415E44507E
:10477000425AD89044324332452EAAEFA3F041C5A5
:1047800041F542C542F5120039EC9FF01A6AD7EFA5
:10479000A3F0BC0E1A24F66EF76AFB0EF722F86A35
:1047A000000EF8220800F55053ECA4F01A2ABC0EB3
:1047B0001A24F66EF76AFB0EF722F86A000EF8224A
:1047C0000800F5500009D8A4E8EFA3F0EAEFA3F041
:1047D000C9EFA3F003ECA5F0150E436EC60EE82E4C
:1047E000FED7432EFCD700D01200426EDEECA7F0BD
:1047F000245094EC99F09CECA6F0436E00004350DA
:10480000D8A405EFA4F007EFA4F00CEFA4F0C9ECD6
:10481000A7F0000E24EFA4F0425094EC99F09CEC29
:10482000A6F0436EC9ECA7F00000350EE82EFED7C7
:1048300000004350D8A41FEFA4F021EFA4F023EF11
:10484000A4F009EFA4F0010E1200BFECA1F01A6A67
:1048500038EFA4F0C50E1A24F66EF76AFB0EF722A5
:10486000F86A000EF8220800F550ADECA4F01A2A00
:10487000C50E1A24F66EF76AFB0EF722F86A000ED0
:10488000F8220800F5500009D8A449EFA4F04BEF36
:10489000A4F02AEFA4F0D00E436ECA0EE82EFED785
:1048A000432EFCD71200416E57EFA4F004003550A0
:1048B000D8B45DEFA4F05FEFA4F056EFA4F0A2B27D
:1048C00064EFA4F066EFA4F06AEFA4F041C5A3F290
:1048D0007EEFA4F0A292800E3724D96EDA6A080E19
:1048E000DA2241C5DFF4372A3F0E37647AEFA4F0AD
:1048F0007CEFA4F07DEFA4F0376A3506A2821200A7
:10490000C198C088110E466E3C0E456ECB0EE82E47
:10491000FED7452EFCD7462EFAD70000C188DB0E05
:1049200077ECA8F0020E466EA00E456E920EE82EB1
:10493000FED7452EFCD7462EFAD700D0C098090ED8
:10494000466E1E0E456EE40EE82EFED7452EFCD7B1
:10495000462EFAD700D0C1981200416EB1EFA4F0F4
:1049600004002D50D8B4B7EFA4F0B9EFA4F0B0EF25
:10497000A4F0A7B2BEEFA4F0C0EFA4F0C4EFA4F07F
:1049800041C5C9F2D8EFA4F0A792800E2F24D96EAA
:10499000DA6A090EDA2241C5DFF42F2A3F0E2F64AE
:1049A000D4EFA4F0D6EFA4F0D7EFA4F02F6A2D0631
:1049B000A7821200B198B2C53DF5B3C53EF51DEC16
:1049C000A8F00601D651D711D811D8B4EAEFA4F057
:1049D000ECEFA4F0F9EFA4F002D8F9EFA4F0050091
:1049E000FA6ED651FD6ED751FE6ED851FF6EFA5059
:1049F00012003DECA9F0010E0501E56F25C511F58A
:104A0000126A256A12000501F66B0E6A000E0D6E21
:104A100021EFA5F0150E416EC60EE82EFED7412EF1
:104A2000FCD700D00D4A0E2AF50E0D5C010E0E5873
:104A3000D8A01DEFA5F01FEFA5F021EFA5F02AEFFC
:104A4000A5F00501F651D8B428EFA5F02AEFA5F09E
:104A50000AEFA5F01200C088090E466E1E0E456EC4
:104A6000E40EE82EFED7452EFCD7462EFAD700D00E
:104A70000000C188DB0E77ECA8F0090E466E1E0E12
:104A8000456EE40EE82EFED7452EFCD7462EFAD70B
:104A900000D0C098D00E456ECA0EE82EFED7452E27
:104AA000FCD7C1981200476EC088090E466E1E0ED4
:104AB000456EE40EE82EFED7452EFCD7462EFAD7DB
:104AC00000D0C188475077ECA8F0D00E456ECA0ED2
:104AD000E82EFED7452EFCD7C098090E466E1E0E56
:104AE000456EE40EE82EFED7452EFCD7462EFAD7AB
:104AF00000D0C1981200000ED6BE010E446E380ED2
:104B00000001456F4250446F41C543F043C546F034
:104B10004151F80B0309416FD69E550E426FAA0E04
:104B2000426F408140B197EFA5F099EFA5F092EF69
:104B3000A5F044B002D0D69E01D0D68EF80E00016A
:104B400041171200BFECA1F01A6AB5EFA5F05B0E99
:104B50001A24F66EF76AFB0EF722F86A000EF822A6
:104B60000800F550ADECA4F01A2A5B0E1A24F66E7C
:104B7000F76AFB0EF722F86A000EF8220800F550DB
:104B80000009D8A4C6EFA5F0C8EFA5F0A7EFA5F0DF
:104B90001200C088090E466E1E0E456EE40EE82E09
:104BA000FED7452EFCD7462EFAD700D0C188DC0EA2
:104BB00077ECA8F0D00E456ECA0EE82EFED7452E33
:104BC000FCD7C098090E466E1E0E456EE40EE82E08
:104BD000FED7452EFCD7462EFAD700D0C19812003A
:104BE0000E6A000E0D6E0CEFA6F0150E416EC60E8D
:104BF000E82EFED7412EFCD700D00D4A0E2A890E92
:104C00000D5C130E0E58D8A008EFA6F00AEFA6F020
:104C10000CEFA6F014EFA6F0230E3C6412EFA6F002
:104C200014EFA6F0F5EFA5F0120003012B6B2C6B2F
:104C3000040E2D6FF80E296F6E0E286FB398285151
:104C400029C344F5456A44C545F5446A4410050145
:104C5000AA6F4550AB6FA388920E416E520E426E02
:104C6000010E436E12ECA9F0350E03012A6F1200FB
:104C70003DECA7F07AECA7F07DECA1F0246E3F0E9E
:104C8000246445EFA6F047EFA6F058EFA6F003EC3A
:104C900098F06D0E0601D36F010E8BEC98F0020EAA
:104CA0008BEC98F0030E8BEC98F0040E8BEC98F0E4
:104CB000000012007C20414D47452020496E642EA3
:104CC00020427261732E207C00007C205369737433
:104CD000656D612073656D2066696F2E207C000014
:104CE0007C47415445574159207632322072323543
:104CF0002F35207C000003011F6B206B040E216FF9
:104D00001D6B1C6BB1981C511DC344F5456A44C50D
:104D100045F5446A44100501B26F4550B36FA18850
:104D2000940E416E520E426E010E436E0BECA9F0D2
:104D3000040E03011E6F1200C18CC98C6A0EE82E8E
:104D4000FED700D0000ECFB0010E416E350EE82E1A
:104D5000FED70000C19CC99C350EE82EFED700008E
:104D60004150D8A4B6EFA6F0B8EFA6F0BBEFA6F07E
:104D7000010EBCEFA6F0000E120000000501E16B71
:104D8000010EDC6F566A000E5624D96EDA6A060EE2
:104D9000DA228C0E5624E16EE26A070EE222DFC4AC
:104DA000E7F4562A270E5664D8EFA6F0DAEFA6F0FD
:104DB000C3EFA6F08DEC94F01200400E2860E3EFF4
:104DC000A6F0E5EFA6F0FBEFA6F0000E2924D96EC1
:104DD000DA6A090EDA22DF500201DC6F292A3F0E5F
:104DE0002964F5EFA6F0F7EFA6F0F8EFA6F0296A30
:104DF000282AFCEFA6F0AA921200400E2D6003EFC5
:104E0000A7F005EFA7F01BEFA7F0800E2E24D96EB8
:104E1000DA6A090EDA22DF500201C96F2E2A3F0E2C
:104E20002E6415EFA7F017EFA7F018EFA7F02E6A82
:104E30002D2A1CEFA7F0A7921200400E356023EF39
:104E4000A7F025EFA7F03BEFA7F0800E3624D96E30
:104E5000DA6A080EDA22DF500201A36F362A3F0E0B
:104E6000366435EFA7F037EFA7F038EFA7F0366AD2
:104E7000352A3CEFA7F0A2921200BF90C790C19CC8
:104E8000C99CE40E00D000D0E82EFCD700D000D0A2
:104E9000BF80C780350EE82EFED70000C18CC98CBC
:104EA000350EE82EFED70000E40E00D000D0E82E2C
:104EB000FCD700D000D0120041C545F542C546F5EB
:104EC00043C5F6F444C5F7F4434A442A000EF86E8D
:104ED00045C5D9F446C5DAF4454A462A0800F5C462
:104EE000DFF4DF50D8A477EFA7F079EFA7F060EFF9
:104EF000A7F012003DECA7F0DEECA7F0BF80C78062
:104F000046ECA8F046ECA8F046ECA8F046ECA8F079
:104F100046ECA8F046ECA8F046ECA8F046ECA8F069
:104F200046ECA8F0DEECA7F0C9ECA7F01200426E48
:104F3000DEECA7F0425094EC99F06A0EE82EFED712
:104F400000D09CECA6F0436EC9ECA7F0000043042F
:104F5000D8A4ADEFA7F0AFEFA7F0B2EFA7F0010E26
:104F6000B3EFA7F0000E120003011EA5BAEFA7F0E1
:104F7000BCEFA7F0C4EFA7F01E9142501D6F41C5D2
:104F80001CF31E81C8EFA7F042501D6F41C51CF3F2
:104F90001200C19CC99CBF90C790350EE82EFED769
:104FA0000000C18CC98C6A0EE82EFED700D0BF80ED
:104FB000C780350EE82EFED700001200C18CC98CC8
:104FC000BF80C780350EE82EFED70000BF90C79087
:104FD0006A0EE82EFED700D0C19CC99C350EE82E83
:104FE000FED700001200700E2724D96EDA6A060E72
:104FF000DA22DAC2DFF4272A070E276402EFA8F0CC
:1050000004EFA8F005EFA8F0276A0501E72B1200CE
:1050100003012AA50EEFA8F010EFA8F018EFA8F0F2
:105020002A913E50296F3DC528F32A811CEFA8F034
:105030003E50296F3DC528F3120003011EA523EF42
:10504000A8F025EFA8F02DEFA8F01E913E501D6F9F
:105050003DC51CF31E8131EFA8F03E501D6F3DC5CC
:105060001CF3120041542B5645523D3F0D00204287
:105070004F4F5420207C2020202020202020202042
:0B50800020202020202020207C0000A9
:10508C001A0EE82EFED700D0C18CC98C1A0EE82E51
:10509C00FED700D0C19CC99C12003F0E246459EF6E
:1050AC00A8F05BEFA8F05EEFA8F0040E8BEC98F084
:1050BC001200C30E0501B36F730EB26FB2C541F58A
:1050CC00B3C542F5B4ECA7F01200380E0001456FE1
:1050DC004250446F41C543F0F80E41174081465190
:1050EC001200446E4450EBEC93F0D00E436ECA0E9B
:1050FC00E82EFED7432EFCD71200000E446E010E94
:10510C001BEC91F0000E446E800E1BEC91F0120023
:10511C000001606B616B636B646B656B666B676BDB
:10512C00686B1200600E0001AD6FAF6BB36B080EB5
:10513C00B16FB06BAC6B120041C5EEF642C5EFF629
:10514C0043C5F0F6120041C5F1F642C5F2F643C56F
:10515C00F3F6120041C5EEF742C5EFF743C5F0F781
:10516C00120041C5D9F642C5DAF643C5DBF612008A
:10517C0041C5EBF742C5ECF743C5EDF7120041C54D
:10518C00FAF642C5FBF643C5FCF6120041C5FDF626
:10519C0042C5FEF643C5FFF6120041C5DFF642C517
:1051AC00E0F643C5E1F6120041C5E2F642C5E3F66E
:1051BC0043C5E4F6120041C5DCF642C5DDF643C535
:1051CC00DEF6120041C5F4F642C5F5F643C5F6F617
:1051DC00120041C5F7F642C5F8F643C5F9F61200C0
:1051EC0041C5E8F642C5E9F643C5EAF6120041C5E9
:1051FC00EBF642C5ECF643C5EDF6120041C5E5F6FB
:10520C0042C5E6F643C5E7F6120041C5D6F642C5DF
:10521C00D7F643C5D8F6120041C5A3F542C5A4F58F
:10522C0043C5A5F51200240E0001786F060E796FA8
:10523C001200BFECA1F00AEC9BF00000120039EC5C
:10524C009FF0A0EC92F00000120003011E911200DE
:10525C0003011E811200100E246E1200F3ECA7F055
:10526C0012005CEC8EF01200C6EC85F0120003010B
:10527C001E911200D69A1200120012001200120097
:0A528C0012001200120012001200BE
:020000040020DA
:10000000FFFFFFFFFFFFFFFFFFFFFFFFFFFFFFFF00
:10001000FFFFFFFFFFFFFFFFFFFFFFFFFFFFFFFFF0
:10002000FFFFFFFFFFFFFFFFFFFFFFFFFFFFFFFFE0
:10003000FFFFFFFFFFFFFFFFFFFFFFFFFFFFFFFFD0
:020000040030CA
:080000008CFFF7DFB2C6FFFF21
:01000900FEF8
:020000040038C2
:10000000FFFFFFFFFFFFFFFFFFFFFFFFFFFFFFFF00
:10001000FFFFFFFFFFFFFFFFFFFFFFFFFFFFFFFFF0
:10002000FFFFFFFFFFFFFFFFFFFFFFFFFFFFFFFFE0
:10003000FFFFFFFFFFFFFFFFFFFFFFFFFFFFFFFFD0
:00000001FF
